:020000040800F2
:100000009810002069020008950A0008630700089C
:100010006909000835030008D12700080000000026
:10002000000000000000000000000000A718000809
:10003000A106000800000000210B00088519000837
:10004000830200088302000883020008830200087C
:10005000830200088302000883020008830200086C
:10006000830200088302000883020008830200085C
:10007000830200088302000883020008830200084C
:10008000830200088302000883020008830200083C
:10009000830200088302000883020008830200082C
:1000A000830200088302000883020008E91900089F
:1000B0001D1C000883020008C91C000883020008F8
:1000C00083020008830200088302000883020008FC
:1000D00083020008ED25000883020008830200085F
:1000E00083020008830200088302000883020008DC
:1000F00083020008830200088302000883020008CC
:1001000083020008830200088302000883020008BB
:1001100083020008830200088302000883020008AB
:10012000830200088302000883020008830200089B
:10013000830200088302000883020008830200088B
:10014000830200088302000883020008830200087B
:10015000830200088302000883020008830200086B
:10016000830200088302000883020008830200085B
:10017000830200088302000883020008830200084B
:10018000830200088302000800F002F800F05CF827
:100190000AA090E8000C82448344AAF10107DA45E2
:1001A00001D100F051F8AFF2090EBAE80F0013F0D8
:1001B000010F18BFFB1A43F001031847E04D000080
:1001C000004E00000A444FF0000C10F8013B13F001
:1001D000070408BF10F8014B1D1108BF10F8015BA0
:1001E000641E05D010F8016B641E01F8016BF9D193
:1001F00013F0080F1EBF10F8014BAD1C0C1B09D1EA
:100200006D1E58BF01F801CBFAD505E014F8016B5B
:1002100001F8016B6D1EF9D59142D6D370470000ED
:100220000023002400250026103A28BF78C1FBD8FF
:10023000520728BF30C148BF0B6070471FB504F09C
:10024000D4FD1FBD10B510BD00F046F81146FFF7F4
:10025000F5FF03F0BFFB00F064F803B4FFF7F2FF13
:1002600003BC03F049FA00000948804709480047E9
:10027000FEE7FEE7FEE7FEE7FEE7FEE7FEE7FEE756
:10028000FEE7FEE704480549054A064B70470000B3
:10029000891900088901000898040020981000209E
:1002A00098080020980800207047704770477047F2
:1002B000704710B500F008F8006810BD10B504468E
:1002C00000F002F8046010BD0048704738040020B8
:1002D00000487047380400207546FFF7F9FFAE4626
:1002E00005006946534620F00700854618B020B542
:1002F000FFF7C8FFBDE820404FF000064FF00007B1
:100300004FF000084FF0000B21F00701AC46ACE8BD
:10031000C009ACE8C009ACE8C009ACE8C0098D462A
:10032000704710B50446AFF300802046BDE810408A
:10033000FFF793BFFEE710B500F0BAF8BDE8104034
:100340003B2000F02BB9000010B582B000240094CF
:1003500001940121042000F07BFE032000908DF821
:1003600004408DF8050001208DF807006946024819
:1003700000F097F902B010BD0008024070B50024EB
:10038000FFF7E2FF00F04EF80F4D05EB4400417817
:1003900015F8140000F05AF9601CC4B2162CF4D3FE
:1003A0000321FF2000F062F848F2997000F0A2F8F3
:1003B0007221132000F04AF9BDE870400822034979
:1003C0003E2000F00BB90000064E0008FE4D00086C
:1003D00070B506460024124D4FF40041284600F047
:1003E000BCF9601CC4B2052CFBD346F0800001F0C0
:1003F000E5F9601EC4B2002CFBD1FF2001F0DEF94C
:100400000646601CC4B2052CFBD34FF400412846BD
:1004100000F0A5F9601EC4B2002CFBD1304670BDBF
:100420000010024070B500240F4D4FF400412846E3
:1004300000F095F9611CCCB2052CFBD34FF40041C0
:10044000284600F08AF9611ECCB2002CFBD14FF493
:100450000041284600F083F92D2003F0A9F9BDE8FA
:100460007040302000F09AB80010024070B5064687
:100470000D460720FFF7ACFF20F0030431460920AA
:1004800000F0E4F875B1012D04D0022D05D0032D44
:1004900006D007E044F0010404E044F0020401E067
:1004A00044F003042146BDE87040072000F0CEB8B8
:1004B000362000F073B8000010B5002802D00128E3
:1004C00008D00EE04621022000F0C0F8352000F0F0
:1004D00065F806E04621022000F0B8F8342000F06C
:1004E0005DF80348D0F800120029FBD110BD0000D0
:1004F0000000414210B50446210A042000F0A6F88D
:10050000E1B2BDE81040052000F0A0B82DE9F041AF
:1005100006460D460024002A02D0012A02D005E03A
:10052000002703E00920FFF753FF0746FFF703FF0B
:100530000720FFF74DFF10F0030F09D0681CC1B270
:100540003F2000F083F839463F2000F07FF803E0B9
:1005500029463F2000F07AF82A4631463F2000F035
:100560003DF80020FFF7A8FF0B4DD5F8000200284A
:100570000CD1012003F000F92046611C8CB2B0F5CB
:100580007A7F05D0D5F800020028F2D0BDE8F081CE
:10059000BDE8F041FFF7F2BE0000414270B50646EB
:1005A00000240D4D4FF40041284600F0D6F8601CA1
:1005B000C4B2052CFBD3304601F000F9601EC4B272
:1005C000002CFBD14FF40041284600F0C8F8601C15
:1005D000C4B2052CFBD370BD001002402DE9F041E0
:1005E00005460F4616460024DFF85C804FF40041B4
:1005F000404600F0B2F8601CC4B2052CFBD345F0B5
:10060000400001F0DBF80025002E0BD90524601E08
:10061000C4B2002CFBD1785D01F0D0F8681CC5B2E3
:10062000B542F3D3052C03D2601CC4B2052CFBD316
:100630004FF40041404600F092F8601EC4B2002C16
:10064000FBD1BDE8F0810000001002402DE9F0412F
:1006500007460E460024114D4FF40041284600F095
:100660007CF8601CC4B2052CFBD3384601F0A6F818
:10067000601EC4B2002CFBD1304601F09FF8601C14
:10068000C4B2052CFBD34FF40041284600F067F8B4
:10069000601EC4B2002CFBD1BDE8F0810010024006
:1006A00070472DE9F00100220126032706FA02FC1B
:1006B0000B6803EA0C03634538D10568530007FA59
:1006C00003F4A54305600D79D0F800809D4045EA0C
:1006D000080505600D79012D01D0022D17D185681F
:1006E000A54385604D79D0F808809D4045EA08050E
:1006F0008560456825EA0C0CC0F804C0D0F804C039
:100700008D799540ADB24CEA050CC0F804C0D0F824
:100710000CC02CEA040CC0F80CC091F807C00CFA0D
:1007200003F3D0F80CC043EA0C03C360521C102A38
:10073000BCD3BDE8F00170474B07DB0E9A40C908F7
:1007400000EB8100016A4FF00F0C0CFA03F39943A0
:100750000162016A1143016270474183704701835E
:100760007047FEE710B582B0002400940194012187
:10077000042000F06DFC2020009001208DF8040082
:100780008DF8064003208DF8050002208DF8070043
:10079000054C69462046FFF784FF20212046FFF7DD
:1007A000DCFF02B010BD000000080240F0B583B0CD
:1007B0000024009401940121042000F049FC102041
:1007C00000908DF8044003268DF8056002208DF816
:1007D000070069461948FFF764FF0121084600F049
:1007E00037FC1820009001258DF804508DF8064044
:1007F0008DF805608DF80750114F69463846FFF7B0
:1008000050FF18213846FFF7AAFF0121102000F001
:100810001FFCF81300908DF804508DF806408DF8F9
:1008200005608DF80750074C69462046FFF739FFF1
:10083000E1132046FFF793FF03B0F0BD000802402C
:1008400000000240001002402DE9F04116461F460C
:1008500000250024DFF844800020C8F88C0241F015
:10086000800000F019FF002E07D9FF2000F014FFD0
:1008700029466D1C7854B542F7D30F2C03D2601C67
:10088000C4B20F2CFBD30120C8F88C02601EC4B286
:100890000A2CFBD80020BDE8F08100000000404297
:1008A0002DE9F041084616461F4600250024DFF8D2
:1008B00040800022C8F88C2200F0EEFE002E06D9FF
:1008C00028466D1C385C00F0E7FEB542F8D30F2CCB
:1008D00003D2601CC4B20F2CFBD30120C8F88C02D9
:1008E000601EC4B20A2CFBD80020BDE8F0810000D5
:1008F000000040422DE9F0410E4E0020306000F033
:10090000CBFE0446002000F0C7FE0546002000F0A4
:10091000C3FE0746002000F0BFFE01213160210622
:1009200041EA054141EA0721084320F07F40BDE844
:10093000F08100009002404210B5044C002020607D
:10094000482000F0A9FE0120206010BD9002404226
:1009500010B5044C00202060582000F09DFE0120BE
:10096000206010BD90024042FEE700002DE9F041FA
:100970002DED068B414D424C95ED188B94ED000BFF
:1009800053EC182B51EC100B03F026FC95ED1A9B41
:1009900053EC192B03F020FC95ED1CAB53EC1A2BF8
:1009A00004F0C8F803F024FE364D286094ED000BE7
:1009B00053EC182B51EC100B03F00EFC53EC192BDD
:1009C00004F0B8F853EC1A2B03F006FC03F010FE09
:1009D0002D4E306094ED000B53EC182B51EC100BA6
:1009E00004F0A8F853EC192B03F0F6FB53EC1A2B88
:1009F00003F0F2FB03F0FCFD244F386094ED000B94
:100A000053EC182B51EC100B04F094F853EC192B09
:100A100004F090F853EC1A2B04F08CF803F0E8FD86
:100A20001B4A106029684FF4C870B1F5C87F00DD1B
:100A300028602B680021002B00DA29603368B3F5A9
:100A4000C87F00DD30603368002B00DA31603B681E
:100A5000B3F5C87F00DD38603B68002B00DA3960F1
:100A60001368B3F5C87F00DD10601068002800DA55
:100A70001160BDEC068BBDE8F0810000E0000020B5
:100A80001800002040000020440000204800002002
:100A90004C0000207047000010B44FF00F0CC278DB
:100AA00001240178002A23D0174A126802F4E06278
:100AB000C2F5E062C2F30722C2F104032CFA02FC81
:100AC00042789A40837803EA0C031A43120101F139
:100AD000E02181F80024007800F01F0104FA01F100
:100AE0004009800000F1E020C0F8001110BC704700
:100AF00001F01F0004FA00F04909890001F1E0212A
:100B0000C1F8800110BC70470CED00E0034940F0D3
:100B1000FD7040F080600860704700000CED00E060
:100B200070470000000000002DE9F0472DED108B0C
:100B30009FEDF99B9FEDFAEB9FEDFBFBFC4EA6F1C1
:100B4000480404F178089FEDFCCB9FEDFDDB04F138
:100B5000F00704F1A80904F5907A9FEDFBABFC4D7A
:100B60009FEDFDBB94ED020B84ED040B94ED000BA7
:100B700084ED020BFA48006804F0C6F841EC180B4B
:100B8000F84890ED000A10EE100A04F0BDF841ECB0
:100B9000100BF54890ED001B51EC100B53EC112B92
:100BA00003F0F0FE53EC182B03F0C4FF41EC100BE4
:100BB00084ED000B9FEDEE8B51EC100B53EC182BDA
:100BC00003F0AAFE01D284ED008B94ED000B9FEDA3
:100BD000EA8B51EC100B53EC182B03F063FD01D2A0
:100BE00084ED008B94ED020B53EC192B51EC100BA0
:100BF00003F094FD94ED000B41EC180B53EC192B12
:100C000051EC100B03F08AFD53EC182B03F0E4FABF
:100C100041EC180B686804F077F853EC182B03F0DC
:100C20007DFD41EC100B86ED020B53EC1E2B51ECBD
:100C3000100B03F071FE01D286ED02EB96ED020B74
:100C400053EC1F2B51EC100B03F02CFD01D286ED61
:100C500002FB96ED020B96ED001B53EC102B51ECB2
:100C6000110B03F0B9FA41EC100B86ED000B53ECBD
:100C70001E2B51EC100B03F04FFE01D286ED00EB62
:100C800096ED000B53EC1F2B51EC100B03F00AFDFB
:100C900001D286ED00FB98ED000B88ED020B94ED80
:100CA000020B94ED001B53EC102B51EC110B03F0D5
:100CB00041FF41EC180BA86804F026F853EC182B00
:100CC00003F02CFD41EC100B88ED000B53EC1C2BBA
:100CD00051EC100B03F020FE01D288ED00CB98ED13
:100CE000000B53EC1D2B51EC100B03F0DBFC01D27D
:100CF00088ED00DB98ED020B9FEDA11B51EC100B72
:100D000053EC112B03F00AFD41EC180B98ED000B8E
:100D10009FED9D1B51EC100B53EC112B03F0FEFCCF
:100D200053EC182B03F058FA41EC180B88ED008BAC
:100D3000286803F0E9FF94ED001B53EC112B03F03E
:100D4000EDFC96ED001B53EC112B03F045FA53EC30
:100D5000182B03F041FA41EC100B85ED120B53EC0C
:100D60001C2B51EC100B03F0D7FD01D285ED12CBFB
:100D700095ED120B53EC1D2B51EC100B03F092FC74
:100D800001D285ED12DB99ED020B89ED040B99ED93
:100D900000CB89ED02CB7E48B0F9000003F057FC90
:100DA00095ED121B53EC112B03F0ECFD41EC180BED
:100DB00089ED008B53EC192B51EC1C0B03F0AEFCAE
:100DC00041EC1C0B53EC192B51EC180B03F0A6FC57
:100DD00053EC1C2B03F000FA41EC180B286903F0CC
:100DE00093FF53EC182B03F099FC41EC100B87EDAB
:100DF000020B53EC1A2B51EC100B03F08DFD01D2BA
:100E000087ED02AB97ED020B53EC1B2B51EC100B53
:100E100003F048FC01D287ED02BB97ED020B97ED82
:100E2000001B53EC102B51EC110B03F0D5F941ECE6
:100E3000100B87ED000B53EC1A2B51EC100B03F049
:100E40006BFD01D287ED00AB97ED000B53EC1B2B34
:100E500051EC100B03F026FC01D287ED00BB9AED9C
:100E6000000B8AED020B99ED020B99ED001B53EC80
:100E7000102B51EC110B03F05DFE41EC180B68696F
:100E800003F042FF53EC182B03F048FC41EC100B2D
:100E90008AED000B53EC1A2B51EC100B03F03CFDC8
:100EA00001D28AED00AB9AED000B53EC1B2B51ECF9
:100EB000100B03F0F7FB01D28AED00BB9AED020B99
:100EC0009FED351B51EC100B53EC112B03F026FC5E
:100ED0009AED000B9FED321B41EC180B53EC112BDC
:100EE00051EC100B03F01AFC53EC182B03F074F9BF
:100EF00041EC180B8AED008BE86803F005FF99EDD3
:100F0000001B53EC112B03F009FC97ED001B53EC75
:100F1000112B03F061F947E0000000000000E03F02
:100F2000000000000000394000000000000039C04F
:100F30004802002000000000000000000088D340AC
:100F4000000000000088D3C00000000000007940CD
:100F5000E00000200000000000000000000079C058
:100F6000500000205C000020200000200000000055
:100F7000000000000080464000000000008046C0E5
:100F80009A9999999999C93F9A9999999999E93F03
:100F9000D8010020000000009A9999999999D93FA9
:100FA000333333333333E33F53EC182B03F014F96B
:100FB00041EC100B85ED180B53EC1A2B51EC100B78
:100FC00003F0AAFC01D285ED18AB95ED180B53EC9C
:100FD0001B2B51EC100B03F065FB01D285ED18BB08
:100FE000BDEC108BBDE8F08717499FED150B81ED27
:100FF000120B164880ED040B80ED020B80ED000B08
:10100000483080ED020B80ED000B303080ED020B9C
:1010100080ED000B303080ED040B80ED020B80ED95
:10102000000B483080ED020B80ED000B303080ED7E
:10103000020B80ED000B81ED180B704700000000E3
:101040000000000000000000E0000020000200207E
:10105000054A002903D011680843106070471168E1
:1010600021EA00001060704730380240054A00292C
:1010700003D01168084310607047116821EA00002E
:101080001060704740380240054A002903D01168BB
:10109000084310607047116821EA00001060704733
:1010A00020380240054A002903D011680843106027
:1010B0007047116821EA0000106070474438024010
:1010C00030B4DFF89CC0DCF8001001F00C01254DB5
:1010D000002923D06C10042922D0082922D00560D1
:1010E000DCF8001001F0F00109091F4B595C02689F
:1010F00022FA01F14160DCF8002002F4E052920A89
:101100009A5C21FA02F28260DCF8002002F460426C
:10111000520B9A5CD140C16030BC70470560DFE77C
:101120000460DDE7114A1168C1F38053116801F0D2
:101130003F0133B1B4FBF1F11368C3F38813594392
:1011400005E0B5FBF1F11368C3F388135943126846
:10115000C2F30142521C5200B1FBF2F10160BFE741
:10116000083802400024F4005801002004380240EE
:101170002DE9F0472DED108B9FEDF99B9FEDFAEBDC
:101180009FEDFBFBFC4EA6F1400404F170089FEDBF
:10119000FCCB9FEDFDDB04F1E80704F1A80904F5A1
:1011A0008C7A9FEDFBABFC4D9FEDFDBB94ED020BEC
:1011B00084ED040B94ED000B84ED020BFA480068FB
:1011C00003F0A2FD41EC180BF84890ED000A10EE78
:1011D000100A03F099FD41EC100BF54890ED001B4F
:1011E00051EC100B53EC112B03F0CCFB53EC182BF0
:1011F00003F0A0FC41EC100B84ED000B9FEDEE8B97
:1012000051EC100B53EC182B03F086FB01D284ED4C
:10121000008B94ED000B9FEDEA8B51EC100B53EC1F
:10122000182B03F03FFA01D284ED008B94ED020BF2
:1012300053EC192B51EC100B03F070FA94ED000BEA
:1012400041EC180B53EC192B51EC100B03F066FA20
:1012500053EC182B02F0C0FF41EC180BE86903F0C7
:1012600053FD53EC182B03F059FA41EC100B86EDAB
:10127000020B53EC1E2B51EC100B03F04DFB01D273
:1012800086ED02EB96ED020B53EC1F2B51EC100B8D
:1012900003F008FA01D286ED02FB96ED020B96ED03
:1012A000001B53EC102B51EC110B02F095FF41EC9D
:1012B000100B86ED000B53EC1E2B51EC100B03F0C2
:1012C0002BFB01D286ED00EB96ED000B53EC1F2BB0
:1012D00051EC100B03F0E6F901D286ED00FB98ED1E
:1012E000000B88ED020B94ED020B94ED001B53EC08
:1012F000102B51EC110B03F01DFC41EC180B286A6C
:1013000003F002FD53EC182B03F008FA41EC100B2C
:1013100088ED000B53EC1C2B51EC100B03F0FCFA86
:1013200001D288ED00CB98ED000B53EC1D2B51EC56
:10133000100B03F0B7F901D288ED00DB98ED020B3A
:101340009FEDA11B51EC100B53EC112B03F0E6F9B0
:1013500041EC180B98ED000B9FED9D1B51EC100B11
:1013600053EC112B03F0DAF953EC182B02F034FF95
:1013700041EC180B88ED008BA86903F0C5FC94EDD7
:10138000001B53EC112B03F0C9F996ED001B53EC35
:10139000112B02F021FF53EC182B02F01DFF41EC42
:1013A000100B85ED140B53EC1C2B51EC100B03F0C0
:1013B000B3FA01D285ED14CB95ED140B53EC1D2B34
:1013C00051EC100B03F06EF901D285ED14DB99EDB1
:1013D000020B89ED040B99ED00CB89ED02CB7E4821
:1013E000B0F9040003F033F995ED141B53EC112B05
:1013F00003F0C8FA41EC180B89ED008B53EC192B64
:1014000051EC1C0B03F08AF941EC1C0B53EC192B2B
:1014100051EC180B03F082F953EC1C2B02F0DCFEAC
:1014200041EC180BA86A03F06FFC53EC182B03F087
:1014300075F941EC100B87ED020B53EC1A2B51ECB4
:10144000100B03F069FA01D287ED02AB97ED020BA6
:1014500053EC1B2B51EC100B03F024F901D287ED58
:1014600002BB97ED020B97ED001B53EC102B51ECD8
:10147000110B02F0B1FE41EC100B87ED000B53ECA9
:101480001A2B51EC100B03F047FA01D287ED00AB99
:1014900097ED000B53EC1B2B51EC100B03F002F9F2
:1014A00001D287ED00BB9AED000B8AED020B99ED9E
:1014B000020B99ED001B53EC102B51EC110B03F0B8
:1014C00039FB41EC180BE86A03F01EFC53EC182BB7
:1014D00003F024F941EC100B8AED000B53EC1A2BAE
:1014E00051EC100B03F018FA01D28AED00AB9AED23
:1014F000000B53EC1B2B51EC100B03F0D3F801D273
:101500008AED00BB9AED020B9FED351B51EC100BE1
:1015100053EC112B03F002F99AED000B9FED321BF7
:1015200041EC180B53EC112B51EC100B03F0F6F8B7
:1015300053EC182B02F050FE41EC180B8AED008B97
:10154000686A03F0E1FB99ED001B53EC112B03F0EB
:10155000E5F897ED001B53EC112B02F03DFE47E040
:10156000000000000000E03F0000000000003940E3
:1015700000000000000039C05802002000000000F8
:10158000000000000088D340000000000088D3C0A5
:101590000000000000007940E00000200000000092
:1015A00000000000000079C054000020640000200A
:1015B00028000020000000000000000000804640DD
:1015C00000000000008046C09A9999999999C93FF6
:1015D0009A9999999999E93FD80100200000000053
:1015E0009A9999999999D93F333333333333E33FF8
:1015F00053EC182B02F0F0FD41EC100B85ED1A0BAB
:1016000053EC1A2B51EC100B03F086F901D285ED47
:101610001AAB95ED1A0B53EC1B2B51EC100B03F08E
:1016200041F801D285ED1ABBBDEC108BBDE8F08707
:1016300017499FED150B81ED140B164880ED040B37
:1016400080ED020B80ED000B403080ED020B80ED51
:10165000000B303080ED020B80ED000B383080ED58
:10166000040B80ED020B80ED000B403080ED020B8F
:1016700080ED000B303080ED020B80ED000B81ED32
:101680001A0B70470000000000000000000000007E
:10169000E00000201802002070B505460A4C022127
:1016A000204600F0CBF80028F9D02946204600F06B
:1016B000CEF80121204600F0C1F80028F9D02046DC
:1016C00000F0C3F8C0B270BD00300140F0B589B081
:1016D00000240694079401940294039404940594BE
:1016E00001218803FFF7C2FC01210420FFF7B0FCB1
:1016F0000C20069002268DF81C608DF81E400325F4
:101700008DF81D508DF81F40294F06A93846FEF769
:10171000C8FF01210220FFF79BFC700206908DF8A4
:101720001C608DF81E408DF81D508DF81F40214D16
:1017300006A92846FEF7B5FF052202213846FEF726
:10174000FBFF052203213846FEF7F6FF05220A219A
:101750002846FEF7F1FF01218803FFF795FC0021E1
:101760007003FFF791FCADF804404FF48270ADF8C0
:101770000600ADF80840ADF80A40ADF80C40681519
:10178000ADF80E003020ADF81000ADF81240072083
:10179000ADF81400084C01A9204600F05AF80121C8
:1017A000204600F03FF8FF2000F008F809B0F0BD37
:1017B0000008024000040240003800402DE9F041DA
:1017C00007460024164E0221304600F037F84FF647
:1017D000FF7548B9601C84B2AC4205D00221304686
:1017E00000F02CF80028F5D047F6FF743946304653
:1017F00000F02DF80121304600F020F848B9601CB7
:1018000084B2AC4205D00121304600F017F8002820
:10181000F5D0304600F019F8C0B2BDE8F081000004
:1018200000380040002904D0018841F040010180C7
:101830007047018821F04001018070470246002076
:1018400012890A4200D00120704780897047818147
:10185000704710B4028802F441520B88B1F802C0FC
:10186000CC8843EA0C03B1F804C04CEA040C43EA08
:101870000C03B1F808C043EA0C03B1F80AC043EA0C
:101880000C03B1F80CC043EA0C03B1F80EC043EAF4
:101890000C031A430280828B22F400628283098A3D
:1018A000018210BC7047704782B000220192009202
:1018B0002749086840F480300860086800F4003068
:1018C00000900198401C0190009818B90198B0F55B
:1018D000A04FF2D1086810F4003F02D00120009020
:1018E00000E000920098012830D11A48026842F0C6
:1018F000805202601848026842F440420260174871
:1019000002680260026842F400420260026842F427
:10191000A0520260021F124B13600A6842F08072EC
:101920000A600A6812F0007FFBD00E4A40F205718F
:101930001160016821F003010160016841F00201BA
:101940000160016801F00C010829FAD102B070476A
:101950000038024040380240007000400838024021
:1019600008544007003C02404FF0E021042804D016
:10197000086920F0040008617047086940F004001D
:10198000086170477047000010B51148016841F4C4
:10199000700101600F48016841F0010101600E4AC9
:1019A00000211160026822F4102222F0807202608D
:1019B000031D0A4A1A60026822F480220260084865
:1019C0000160FFF771FF07494FF00060086010BD2C
:1019D00088ED00E000380240083802401030002452
:1019E0000C38024008ED00E02DE9F047DFF82492C2
:1019F0000121484600F0C3FD874C3F264FF6FF7794
:101A000040B1617811F0400F04D036EA010021D0D6
:101A1000481C60700221484600F0B1FD00254FF0DF
:101A2000400858B3617811F0400F18D041F08000A1
:101A30006070484600F09BFD617801F03F01C1EB0A
:101A400001410844E168401AE0600021484600F086
:101A5000A1FD0FE041F080006070E760DAE7E5602B
:101A600084F80180484600F082FDE060022148468B
:101A700000F090FD0221484600F076FD0121484625
:101A800000F07DFD40B1A17811F0400F04D036EA9E
:101A900001001ED0481CA0700421484600F06FFDD4
:101AA00058B3A17811F0400F18D041F08000A07019
:101AB000484600F05EFDA17801F03F01C1EB014115
:101AC00008442169401A20610021484600F068FD61
:101AD0000FE041F08000A0702761DDE7256184F808
:101AE0000280484600F045FD20610221484600F092
:101AF00057FD0421484600F037FD0121484600F01B
:101B00003EFD40B1E17811F0400F04D036EA01000B
:101B10001ED0481CE0700821484600F030FD58B344
:101B2000E17811F0400F18D041F08000E070484695
:101B300000F021FDE17801F03F01C1EB01410844D3
:101B40006169401A60610021484600F033FD0FE0F2
:101B500041F08000E0706761DDE7656184F8038033
:101B6000484600F008FD60610221484600F022FD71
:101B70000821484600F0F8FC0121484600F0FFFC2F
:101B800040B1217911F0400F04D036EA01001ED097
:101B9000481C20711021484600F0F1FC58B321790F
:101BA00011F0400F18D041F080002071484600F03D
:101BB000E4FC217901F03F01C1EB01410844A16936
:101BC000401AA0610021484600F0FEFC0FE041F001
:101BD00080002071A761DDE7A56184F80480484694
:101BE00000F0CBFCA0610221484600F0EDFC102182
:101BF000484600F0B9FC0121484600F0C0FC00282E
:101C000005D04846BDE8F047012100F0ADBCBDE875
:101C1000F0870000000001407001002010B5012194
:101C2000880700F0ACFC264C40B1207810F0400F43
:101C300004D03F2181431ED0401C20700221480760
:101C400000F09DFC70B3207810F0400F1AD040F0E7
:101C5000800020704FF0804000F089FC217801F076
:101C60003F01401AA168401AA06000214FF0804057
:101C700000F090FC12E040F0800020704FF0FF3048
:101C8000A060DBE70020A06040202070000600F08C
:101C90006EFCA0600221480700F07CFC022148078E
:101CA00000F062FC0121880700F069FC002805D0E3
:101CB0000121BDE81040880700F056BC10BD0000AF
:101CC00070010020000000002DE9F05F2DED108B69
:101CD0000121FD4C204600F052FC01287CD101215D
:101CE000204600F041FCF9480078DFF8E493F94A17
:101CF000F94F01280BD0F9493868A1FB00310909D7
:101D00006FF01803594310EB410017D01CE0F44862
:101D10000178491C01703868A9FB0031C9084942A3
:101D200001EB810110EB41000ED1D2F8940218B101
:101D30000020C2F8940207E00120FAE7D2F89402EA
:101D400018B30020C2F89402E64E707810F0800FAD
:101D50009FEDE5CB9FEDE6DB9FEDE7EBDFF8A083A2
:101D60009FEDE9BB9FEDEA8B9FEDEB9B40F2E735E2
:101D70009FEDEBAB4FF0000452D0F068EA49A0F2BF
:101D8000E932AA4203D2086003E00120DAE70868DA
:101D900008607470F4600868A0F2CD5002F057FC3F
:101DA00053EC1B2B02F0BAFC53EC1C2B02F0C8FACC
:101DB00041EC100B88ED000B98ED000B53EC182B49
:101DC00051EC100B02F0A8FD05D2B0EE48FAF0EE8F
:101DD00068FA88ED00FB00E027E398ED000B53EC78
:101DE0001D2B51EC100B02F097FD0AD298ED000B61
:101DF00053EC1E2B51EC100B02F054FC01D288ED79
:101E000000AB98ED000B53EC192B51EC100B02F0CA
:101E100049FC05D2B0EE49FAF0EE69FA88ED00FB14
:101E2000B07810F0800F57D03069C049A0F2E93285
:101E3000DFF8FCA2AA4201D2086001E0086808604D
:101E4000B47034610868A0F2CD50404202F0FFFB4C
:101E500053EC1B2B02F062FC9FEDB71B53EC112BD4
:101E600002F06EFA41EC100B8AED000B9AED000BBC
:101E700053EC182B51EC100B02F04EFD05D2B0EED6
:101E800048FAF0EE68FA8AED00FB9FEDAD0B53ECDB
:101E9000102B9AED000B51EC100B02F03DFD0CD213
:101EA0009FEDA90B53EC102B9AED000B51EC100B8E
:101EB00002F0F8FB01D28AED00AB9AED000B53EC77
:101EC000192B51EC100B02F0EDFB05D2B0EE49FAE4
:101ED000F0EE69FA8AED00FBF07810F0800F49D03F
:101EE00070699B49A0F2E932DFF868A2AA4201D2E8
:101EF000086001E008680860F47074610868A0F286
:101F0000CD50404202F0A3FB53EC1B2B02F006FC29
:101F100053EC1C2B02F014FA41EC100B8AED000B71
:101F20009AED000B53EC182B51EC100B02F0F4FC63
:101F300001D28AED008B9AED000B53EC1D2B51EC76
:101F4000100B02F0E9FC0AD29AED000B53EC1E2BA9
:101F500051EC100B02F0A6FB01D28AED00AB9AED1A
:101F6000000B53EC192B51EC100B02F09BFB01D230
:101F70008AED009B307910F0800F3CD0B069764933
:101F8000A0F2E9329FED768BDFF8DCA1AA4201D204
:101F9000086001E0086808603471B4610868A0F264
:101FA0007E4002F054FB53EC182B02F0B7FB9FED80
:101FB000701B53EC112B02F0C3F941EC100B8AEDAE
:101FC000000B9AED000B53EC182B51EC100B02F0A8
:101FD000A3FC01D28AED008B9AED000BB0EE4A8A89
:101FE000F0EE6A8A53EC182B51EC100B02F05AFBFE
:101FF00001D28AED008B307810F0800F0BD0B068E2
:102000005D49A0F2E932AA4201D2086001E0086805
:1020100008603470B4603878584D594E10F0010F94
:102020009FED59BB4CD0FEF765FC594982460860CC
:10203000288902F023FB96ED009B53EC192B02F04C
:102040006DFB9FED551B53EC112B02F067FB41EC30
:10205000180BA88802F012FB9FED511B53EC112BBB
:1020600002F05CFB53EC182B02F0B6F841EC180BB5
:102070004D4880ED008BE88802F000FB53EC192BF3
:1020800002F04CFB9FED4A1B53EC112B02F046FB78
:1020900041EC190B688802F0F1FA9FED471B53ECF5
:1020A000112B02F03BFB53EC192B02F095F841EC9D
:1020B000190B434880ED009B424D95ED000B83E0EA
:1020C00004E100000000000000080040DA000020E9
:1020D000CDCCCCCC00004142000000201F85EB514C
:1020E000D9000020700100200000000000C0504016
:1020F0009A9999999999B9BF9A9999999999B93F42
:102100003800002000000000000000000000004037
:10211000000000000000244000000000000024C077
:102120000000000000000000040000200800002063
:1021300020000020000000000000000000E05040EF
:102140009A9999999999C9BF9A9999999999C93FD1
:102150000C000020280000201000002000000000DB
:10216000000000000000794018000020000000007E
:102170000000000000F0844014000020180400203B
:10218000B0000020000000000000000000005940E6
:102190008C00002000000000000000000000803FD4
:1021A000000000000000F040B80000200000000027
:1021B000000000000000703F000000000000E04050
:1021C000C00000209800002085ED020B504602F070
:1021D00055FA53EC192B02F0A1FA9FEDB51B53EC05
:1021E000112B02F09BFA53EC182B02F0A3FC9FED8D
:1021F000B21B53EC112B02F091FA53EC1B2B02F0A3
:102200009FF841EC100B85ED000BFEF7A1FB9FED55
:10221000AC0BAD4E53EC102B96ED000B51EC100BAC
:1022200001F0DAFF41EC180B9FEDA90B51EC180BF4
:1022300053EC102B01F0D0FF41EC100B51EC180BBC
:1022400053EC102B02F07CF841EC190BA24880ED06
:10225000009B95ED020B95ED001B53EC102B51EC00
:10226000110B02F067FC53EC192B02F057FA95EDB5
:10227000021B53EC112B01F0AFFF41EC100B85ED6D
:10228000000B53EC192B9FED960B51EC100B02F049
:1022900051FC53EC182B02F041FA71603060924A05
:1022A0009249934801F0CCFB9248934A90ED000A82
:1022B00010EE101A914243DD904991ED000A80ED35
:1022C000000A90ED000A80ED010A42E0FEF712FBE1
:1022D0008B4982460860688902F0D0F99FED8A1B1D
:1022E00053EC112B02F01AFA41EC180B504602F095
:1022F000C5F953EC182B02F01DFC41EC180B86EDD0
:10230000008BA88902F0BAF953EC182B02F006FAF8
:102310009FED7F1B53EC112B02F000FA9FED7E1B0B
:1023200053EC112B01F058FF53EC1B2B02F008F873
:1023300041EC100B7A4880ED000BFEF7FDFAAEE79A
:1023400090ED000A80ED010A694991ED000A80EDE7
:10235000000A744890ED000A10EE101A914209DD4F
:10236000714991ED000A80ED000A90ED000A80EDC0
:10237000010A08E090ED000A80ED010A5B4991ED49
:10238000000A80ED000A694991ED000A10EE100A7A
:10239000904209DD664890ED000A81ED000A91ED5A
:1023A000000A81ED010A08E091ED000A81ED010AC1
:1023B0004D4890ED000A81ED000A5E4802785E48C3
:1023C0005E4D5F4EDFF87CA1DFF87CB1012A30D092
:1023D00080ED00AB5D4891ED000A80ED000AFEF74C
:1023E00003FEFFF725F900F077FC2C603460CAF893
:1023F0000040CBF800403168554E304600F0EEF812
:102400002968304600F0ECF8DBF80010304600F0A8
:10241000E9F8DAF80010304600F0E6F83868401CB9
:102420003860B0F5FA7F00D33C60BDEC108BBDE89E
:10243000F09F3968A9FB01321209524202EB820275
:1024400001EB82019FED448B9FED459B052924D133
:1024500098ED000B804653EC102B90ED000B51ECE7
:10246000100B01F0B9FE41EC100B88ED000B98ED5C
:10247000000B53EC182B51EC100B02F04DFA01D26B
:1024800088ED008B98ED000B53EC192B51EC100BE1
:1024900002F008F901D288ED009BFEF745FBFEF73C
:1024A00067FE00F099F9FEF761FAA4E7000000006A
:1024B000000000000000A03E000000000000003FFF
:1024C0008DEDB5A0F7C6B03EC800002000000000AA
:1024D0007B14AE47E17A643FD0000020000000008A
:1024E000000000000000F03F7C0000207800002089
:1024F000740000205C0000200000B4438000002035
:10250000900000200000000000000000000070406B
:10251000000000000000803E0000000000409F40DE
:10252000A800002064000020840000206C0000202F
:1025300088000020D8000020300000204C0000203F
:1025400048000020440000204000002058000020E7
:102550000004004000000000000000000080664011
:1025600000000000008066C0C94301827047406BD4
:102570007047806B7047C06B7047006C70470022DB
:10258000038A0B4080890840002B01D000B1012252
:1025900010467047028C22F00202114301847047FA
:1025A000028C22F020024FF6FF7303EA011111435F
:1025B00001847047028C22F400724FF6FF7303EA25
:1025C0000121114301847047028C22F400524FF61E
:1025D000FF7303EA0131114301847047416370477F
:1025E00081637047C16370470164704710B5184C30
:1025F00040F22551204600F03DF8002810D020463A
:1026000000F0E2F8C1B2134A108810F4004F07D16D
:1026100010F4804F4FF0000307D00A2901D0138037
:1026200010BD40F40040108010BD0D290BD00A4CA5
:10263000C0F30D0C04F80C10401C80B21080C728A9
:10264000F2D9138010BD40F48040108010BD00000E
:10265000001001406C01002050030020002904D02C
:10266000818941F4005181817047818921F40051B1
:102670008181704710B44FF0000C40F66A12C1F32C
:10268000421301F01F02012404FA02F2012B0FD0C1
:10269000022B10D0838A1A40090A04FA01F100883B
:1026A000084012B108B14FF0010C10BC60467047F1
:1026B00083891A40F0E7038A1A40EDE740F66A136F
:1026C000C1F3421301F01F014FF0010C0CFA01F1AC
:1026D000012B07D0022B07D014303AB10268114306
:1026E000016070470C30F8E71030F6E7026822EA24
:1026F000010101607047000030B585B004460D4609
:10270000208A20F44050E98808432082A08920F4E0
:10271000037020F4A050A9882A8911436A891043C4
:102720000843A081A08A20F44070A9890843A082B0
:102730006846FEF7C5FCA4F18040B0F5883012D0A1
:10274000A4F18040B0F58A300DD00298A18911F42F
:10275000004F0AD000EBC00101EB001029684900CE
:10276000B0FBF1F009E00398F0E700EBC00101EBEA
:10277000001029688900B0FBF1F0124AA2FB003179
:10278000490909010B096FF0180C03FB0CF300EB6E
:102790008300A38913F4004F4FF0320307D003EBFB
:1027A000C000A2FB0020C0F34210084306E003EB88
:1027B0000010A2FB0020C0F343100843208105B0A5
:1027C00030BD00001F85EB518088C0F308007047C2
:1027D000FEE70000000000002DE9F0472DED108B12
:1027E0009FEDF9EB9FEDFA9B9FEDFB8B9FEDFCDBE3
:1027F000FD4CA4F1380604F130059FEDFDCB04F14A
:10280000A80904F1700704F1D80A9FEDFBABDFF8CB
:10281000F0839FEDFDBB96ED020B86ED040B96ED6C
:10282000000B86ED020BFA48006802F06DFA41ECED
:102830001F0BF84890ED000A10EE100A02F064FA3F
:1028400041EC100BF44890ED001B51EC100B53ECD5
:10285000112B02F097F853EC1F2B02F06BF941ECAF
:10286000100B86ED000B9FEDEE1B51EC100B53ECA3
:10287000112B02F051F809D296ED000B53EC1E2BF0
:1028800051EC100B02F056F97160306096ED000BC0
:102890009FEDE51B51EC100B53EC112B01F002FFE7
:1028A00009D296ED000B53EC1E2B51EC100B01F0EE
:1028B00093FC7160306096ED020B53EC192B51ECD8
:1028C000100B01F02BFF96ED000B41EC1E0B53ECAF
:1028D000192B51EC100B01F021FF53EC1E2B01F0D2
:1028E0007BFC41EC1E0BD8F8340002F00DFA53ECDF
:1028F0001E2B01F013FF41EC100B84ED020B53EC87
:10290000182B51EC100B02F007F801D284ED028B6A
:1029100094ED020B53EC1D2B51EC100B01F0C2FE99
:1029200001D284ED02DB94ED020B94ED001B53EC1D
:10293000102B51EC110B01F04FFC41EC100B84ED0E
:10294000000B53EC182B51EC100B01F0E5FF01D2FA
:1029500084ED008B94ED000B53EC1D2B51EC100B10
:1029600001F0A0FE01D284ED00DB95ED000B85EDBA
:10297000020B96ED020B96ED001B53EC102B51EC65
:10298000110B02F0D7F841EC180BD8F8380002F020
:10299000BBF953EC182B01F0C1FE41EC100B85ED97
:1029A000000B53EC1C2B51EC100B01F0B5FF01D2C6
:1029B00085ED00CB95ED000B9FED9DDB51EC100BF1
:1029C00053EC1D2B01F06EFE01D285ED00DB95ED81
:1029D000020B9FED991B51EC100B53EC112B01F0E6
:1029E0009DFE41EC180B95ED000B9FED951B51ECF6
:1029F000100B53EC112B01F091FE53EC182B01F04E
:102A0000EBFB41EC180B85ED008BD8F8300002F0A1
:102A10007BF996ED001B53EC112B01F07FFE94ED3A
:102A2000001B53EC112B01F0D7FB53EC182B01F0DA
:102A3000D3FB41EC100B88ED160B53EC1C2B51EC27
:102A4000100B01F069FF01D288ED16CB98ED160B43
:102A500053EC1D2B51EC100B01F024FE01D288ED3C
:102A600016DB97ED020B87ED040B97ED00CB87ED9E
:102A700002CB7548B0F9080001F0E9FD98ED161B8E
:102A800053EC112B01F07EFF41EC180B87ED008B0E
:102A900053EC192B51EC1C0B01F040FE41EC1C0BCC
:102AA00053EC192B51EC180B01F038FE53EC1C2B96
:102AB00001F092FB41EC180BD8F8400002F024F929
:102AC00053EC182B01F02AFE41EC100B89ED020BA0
:102AD00053EC1A2B51EC100B01F01EFF01D289EDC3
:102AE00002AB99ED020B53EC1B2B51EC100B01F0D8
:102AF000D9FD01D289ED02BB99ED020B99ED001BC6
:102B000053EC102B51EC110B01F066FB41EC100B58
:102B100089ED000B53EC1A2B51EC100B01F0FCFE6D
:102B200001D289ED00AB99ED000B53EC1B2B51EC5E
:102B3000100B01F0B7FD01D289ED00BB9AED000B3F
:102B40008AED020B97ED021B97ED000B53EC112B56
:102B500051EC100B01F0EEFF41EC180BD8F84400DB
:102B600002F0D2F853EC182B01F0D8FD41EC100B19
:102B70008AED000B53EC1A2B51EC100B01F0CCFE3C
:102B800001D28AED00AB9AED000B53EC1B2B51ECFC
:102B9000100B01F087FD01D28AED00BB9AED020B0C
:102BA0009FED2B1B51EC100B53EC112B01F0B6FDDC
:102BB0009AED000B9FED281B41EC180B53EC112BE9
:102BC00051EC100B4CE0000000000000008076404B
:102BD000000000000000E03F00000000000039405D
:102BE00000000000000039C0680200200000000062
:102BF000000000000088D340000000000000794081
:102C0000E00000200000000000000000000079C08B
:102C1000580000206C000020300000200000000060
:102C2000000000000080664000000000008066C0D8
:102C3000000000000088D3C09A9999999999C93FDA
:102C40009A9999999999E93FD801002000000000CC
:102C50009A9999999999D93F333333333333E33F71
:102C600001F05CFD53EC182B01F0B6FA41EC180BA7
:102C70008AED008BD8F83C0002F046F897ED001B77
:102C800053EC112B01F04AFD99ED001B53EC112B75
:102C900001F0A2FA53EC182B01F09EFA41EC100B54
:102CA00088ED1C0B53EC1A2B51EC100B01F034FE89
:102CB00001D288ED1CAB98ED1C0B53EC1B2B51EC97
:102CC000100B01F0EFFC01D288ED1CBBBDEC108BAA
:102CD000BDE8F0870000000017499FED150B81ED5E
:102CE000160B164880ED040B80ED020B80ED000BF7
:102CF000383080ED020B80ED000B303080ED020BA0
:102D000080ED000B403080ED040B80ED020B80ED78
:102D1000000B383080ED020B80ED000B303080ED81
:102D2000020B80ED000B81ED1C0B704700000000D2
:102D30000000000000000000E00000203002002041
:102D400003B401984100009850EAC12018BF042044
:102D50004A0D18BF40F0010040F2FF72B2EB515F24
:102D600008BF40F00200012808BF052002B07047EC
:102D700070B5C1482DED020B2DED0E8B82B0119D6B
:102D800025F000449FEDBEDB9FEDBFEB84423EDBB0
:102D9000A4F140511098A1F17F6108430FD0BC48C5
:102DA000844202DC28D1109830B39DED100B02B0A4
:102DB000BDEC0E8B02B0BDE8704000F069BC9DED2B
:102DC000100B53EC1D2B51EC100B01F0A7FC9DEDEB
:102DD000100B41EC180B53EC1E2B51EC100B01F0B7
:102DE0009DFC53EC182B01F0F7F941EC100B02B0ED
:102DF000BDEC0E8B02B070BD0120FDF75FFA02B092
:102E0000BDEC0E8B02B0BDE8704000F055BCA1488F
:102E10009FEDA18B844256DA9DED100BB4F1795FE2
:102E20000ADA51EC100BFFF78BFF042808BF00F003
:102E300053FC9DED100BDAE753EC102B51EC100B0B
:102E400001F06CFC41EC190B95480621B0EE490AE3
:102E5000F0EE690A784400F09FFB53EC192B51EC1B
:102E6000100B01F05BFC41EC1A0B8E48B0EE490AE6
:102E7000F0EE690A0421784400F08EFB53EC192B24
:102E800051EC100B01F04AFC53EC182B01F0A4F9A3
:102E900041EC100B51EC1A0B53EC102B01F050FAD3
:102EA000CDE900019DED000B53EC102B9DED100BB7
:102EB00051EC100B01F032FC9DED101B53EC112B6B
:102EC00001F08AF9D2E09DED100B51EC100B00F0EF
:102ED00075FD53EC182B01F055FD9FED730BCDE9FB
:102EE000000153EC102B9DED000B51EC100B01F089
:102EF00015FC41EC190B6E480621B0EE490AF0EEC4
:102F0000690A784400F048FB53EC192B51EC100B84
:102F100001F004FC41EC1B0B6648B0EE490AF0EEF0
:102F2000690A0421784400F037FB53EC192B51EC6B
:102F3000100B01F0F3FB53EC182B01F04DF941ECB1
:102F40001C0B51EC190B01F073F841EC180B5A48AB
:102F50009FED5BABA04222DC53EC1C2B51EC1B0B16
:102F600001F0EEF9CDE900019DED000B51EC180BDD
:102F700053EC102B01F0D2FB53EC182B01F02CF981
:102F800053EC1A2B01F0CAFB53EC1D2B01F0D2FDC0
:102F900053EC1E2B01F0F6FC41EC100B5FE08DEDC5
:102FA000008B002000909DED000B51EC180B53ECB2
:102FB000102B01F011F99DED000B41EC1E0B53ECB1
:102FC000102B51EC100B01F0A9FB53EC192B01F065
:102FD000D9FC53EC1E2B01F0B3F941EC190B53EC67
:102FE0001C2B51EC1B0B01F0ABF941EC1B0B53EC10
:102FF0001A2B51EC190B01F091FB53EC1D2B01F036
:10300000C1FC41EC190B53EC1A2B51EC180B01F0DD
:1030100085FB53EC1B2B01F081FB53EC192B01F0CA
:1030200089FD9DED000B41EC180B53EC1A2B51EC74
:10303000100B01F073FB9FED249B53EC192B01F057
:10304000A1FC41EC100B51EC180B53EC102B01F0D0
:1030500071FD53EC192B01F095FC41EC100B002D88
:103060003FF7C5AE51EC100B01F078F841EC100BB6
:10307000BDE60000000000000000F03F000000007E
:10308000075C143326A6913C182D4454FB21F93FCC
:103090000000F07F0000E03F000000000000F03F73
:1030A0004820000056200000000000000000E03F23
:1030B0009A1F0000A81F00003333EF3F00000000FC
:1030C0000000000000000040182D4454FB21E93F9F
:1030D00070B59B482DED020B2DED068B079D25F05D
:1030E0000044A04218DC9748844202DC0AD10698CA
:1030F00040B19DED060BBDEC068B02B0BDE8704003
:1031000000F0C6BA002DCCBF9FED8F0B9FED900B4A
:10311000BDEC068B02B070BD8F48A04215DD8F4814
:10312000A042D8BF4FF0FF3458DD9DED060B51ECA7
:10313000100BFFF705FE042808BF00F0CDFA9DED47
:10314000060BBDEC068B02B070BD9DED060B51EC7D
:10315000100B00F033FCCDE9060181489FED828B16
:10316000A0423CDD8248A0421FDD00249FED82ABDF
:103170009DED060B53EC1A2B51EC100B01F02CF8C3
:103180009DED060B41EC190B53EC1A2B51EC100B77
:1031900001F0C4FA53EC182B01F0CCFC53EC192BC2
:1031A00001F0CEF8CDE9060149E09DED060B0124C2
:1031B00053EC182B51EC100B01F00EF89DED060BA3
:1031C00041EC190B53EC182B51EC100B01F0B2FC35
:1031D00053EC192B01F0B4F8CDE906012FE0684853
:1031E000A0421FDD02249FED689B9DED060B53EC72
:1031F000192B51EC100B01F091FA53EC182B00F045
:10320000EBFF9DED060B41EC180B53EC192B51EC29
:10321000100B01F08FFC53EC182B01F091F8CDE965
:1032200006010CE09DED060B032453EC102B9FEDE3
:10323000580B51EC100B01F083F8CDE906019DED20
:10324000060B53EC102B51EC100B01F067FA41EC1C
:10325000180B53EC182B01F061FA41EC190B4E4896
:103260000621B0EE490AF0EE690A784400F094F9BC
:1032700053EC182B51EC100B01F050FA41EC180BE9
:103280004648B0EE490AF0EE690A0521784400F09C
:1032900083F953EC192B51EC100B01F03FFA41EC80
:1032A000100B51EC180B53EC102B002C0EDA00F025
:1032B00093FF9DED061B53EC112B01F02FFA9DEDB2
:1032C000061B53EC112B01F05DFB35E000F084FF91
:1032D0009DED061B53EC112B01F020FA41EC100B75
:1032E0002F48784400EBC40090ED001B51EC100B0C
:1032F00053EC112B01F01EFC9DED061B53EC112B22
:1033000001F018FC41EC100B2648784400EBC40097
:1033100090ED001B51EC100B53EC112B01F032FB24
:1033200041EC100B002DA2BFBDEC068B02B070BDAE
:1033300051EC100B00F012FF41EC100B01E7000004
:10334000000010440000F07F182D4454FB21F93F89
:10335000182D4454FB21F9BF0000DC3F0000203E43
:103360000000F33F00000000000000000000F03FFC
:103370000000E63F000000000000000000000040E8
:103380000080034000000000000000000000F83F43
:10339000000000000000F0BFEA1C0000A01C0000BC
:1033A0002A1C0000E21B000070B56B4E2DED040BD3
:1033B0002DED028B82B0DDF81CC0DDE905235C42F7
:1033C0002CF000411C4341EAD474049D22F00040DB
:1033D000B44205D86C422C4340EAD474B4420BD9B1
:1033E0009DED061B9DED040B02B0BDEC028B04B0FD
:1033F000BDE8704000F056B9ACF14054A4F17F64D0
:103400001C430BD0022404EAAC7444EAD274054392
:103410009FED538B9FED542B07D015E09DED040BD2
:1034200051EC100B00F069F942E0002C11BF012CA7
:103430009DED040B02B0BDEC028B04BF04B070BD67
:10344000022C38D0032C3BD00B439FED491B9FED42
:103450004A0B0AD0B14218D1B04209D121F08041C3
:1034600020F08040079105900FE0002A15DA10E067
:10347000434B7B44002C08BF93ED000B0DD0012C77
:1034800010D0022C17D0032C1AD0B0421DD1002A24
:1034900003DAB0EE410AF0EE610A02B0BDEC028B35
:1034A00004B070BD93ED000B51EC100B00F056FE14
:1034B00041EC100BF1E7B0EE480AF0EE680AECE7D9
:1034C000B0EE420AF0EE620AE7E7401A00153C2827
:1034D000C8BF8DED000B19DCBCF1000FBEBF10F1B1
:1034E0003C0F9FED290B8DED000B0FDB9DED060BC7
:1034F00053EC102B9DED040B51EC100B00F020FF52
:1035000000F05CFA00F0F9F8CDE90001002C08BFEA
:103510009DED000BC1D0012C10D0022C9FED1C0B97
:1035200053EC102B9DED000B51EC100B0DD001F066
:1035300001FB53EC182B01F0FDFAB9E7019880F07C
:10354000004001909DED000BA7E701F0F3FA53EC6A
:10355000182B01F017FAABE70000F07F0000000025
:10356000182D4454FB210940182D4454FB2109C057
:10357000182D4454FB21F9BF182D4454FB21F93F69
:10358000121B00000000000000000000000000000E
:10359000075C143326A6A13C70B504462DED028BC2
:1035A0004D1E00EBC500B0EE408AF0EE608A90ED53
:1035B000000B35F0060017D053EC182B51EC100B14
:1035C00001F0ACF841EC100B6D1E04EBC50090ED62
:1035D000001B51EC100B53EC112B00F0FDFD41ECE6
:1035E000100B35F00600E7D1022D36D0042D1CD08B
:1035F000062D1CBFBDEC028B70BD53EC182B51EC9B
:10360000100B01F08BF894ED0A1B53EC112B00F01A
:10361000E3FD53EC182B01F081F894ED081B53ECFB
:10362000112B00F0D9FD41EC100B53EC182B51EC91
:10363000100B01F073F894ED061B53EC112B00F006
:10364000CBFD53EC182B01F069F894ED040B53EC0F
:10365000102B00F0C1FD41EC100B53EC182B51EC7A
:10366000100B01F05BF894ED021B53EC112B00F0F2
:10367000B3FD53EC182B01F051F894ED001B53EC03
:10368000112B00F0A9FDBDEC028B41EC100B70BDBD
:1036900010B553EC102B51EC100B00F09DFD41ECDC
:1036A000100B10BD10B553EC112B51EC100B00F0AA
:1036B00093FD41EC100B10BD9FED050B10B553ECC5
:1036C000102B51EC100B00F03BFE41EC100B10BD29
:1036D00000000000000000009FED050B10B553EC4A
:1036E000102B51EC100B01F019F841EC100B10BD30
:1036F0000000000000000010704710B541EC100BF6
:10370000FFF7E6FC51EC100B10BD000070B504464D
:10371000E07800F0C00500F03F0061780A4E11F03B
:10372000010F07D0C30800F00700411C32680AB13E
:1037300018469047607810F0080F03D0716809B1FF
:10374000A8098847002070BD2804002010B5044651
:103750006FF00400FEF708F90649E008087000EB76
:103760004002C2EBC0104FF6FF7202EAC000488070
:1037700010BD00006801002030B54FF40771B0FBA8
:10378000F1F2D4B2B0FBF1F201FB1205002C07D02C
:103790004FF4077000F028F8611ECCB2002CF7D16E
:1037A000002D04D02846BDE8304000F01DB830BDE3
:1037B0000C49097848434FF0E021486100238B61B0
:1037C000086940F001000861086910F0010F02D09B
:1037D00010F4803FF8D0086920F0010008618B6187
:1037E00070470000680100200C49498848434FF0A9
:1037F000E021486100238B61086940F00100086105
:10380000086910F0010F02D010F4803FF8D0086969
:1038100020F0010008618B61704700006801002002
:103820002DE9F04F8DB01646169D179A074689462A
:1038300098460024A246A5F800A0DFF87CB104A9B0
:103840009BF80E0000F0D2FA18B10DB0601EBDE872
:10385000F08FBBF80A2012F0140F66D09DF8130009
:103860009DF810109DF8123040EA01609DF811108B
:10387000090441EA0321084330609DF817109DF8C0
:1038800014309DF816C041EA03619DF815301B0401
:1038900043EA0C23194371609DF81B309DF818C052
:1038A0009DF81A4043EA0C639DF819C04FEA0C4C8E
:1038B0004CEA042C43EA0C03B3609DF81FC09DF84A
:1038C0001C409DF81EB04CEA046C9DF81D40240479
:1038D00044EA0B244CEA040CC6F80CC01024001473
:1038E000009008140190181402904FEA2C400390A5
:1038F00000980199404301FB01010298039B40435A
:1039000003FB03000844A0F17060B0F1007F08D908
:1039100000F0CCFAA5F800A00DB04FF0FF30BDE8E4
:10392000F08F288840F48070288012F0400F04A99E
:103930001AD0081911F804C0437843EA0C23A9F8F7
:103940000030C37890F802C043EA0C23A9F8023093
:103950004379007943EA0020A9F80400A01DC4B20D
:10396000288840F00800288012F4C07F17D008197A
:1039700011F804C0437843EA0C233B80C37890F8E5
:1039800002C043EA0C237B804379007943EA00209C
:10399000B880A01DC4B2288840F07000288012F0C2
:1039A000030F02D00819FFF7B1FE404600F044F8BB
:1039B0000DB00020BDE8F08F2804002082B0CDE9D2
:1039C000000121F0004001909DED000B02B051EC90
:1039D000100B70474FF4A060FDF798F8A820FFF790
:1039E000B5FE4FF4E13000F05BFB4FF47A70FFF767
:1039F000C3FEFCF7B7FEFCF7D9FE0D4C0120C4F85E
:103A00009402FDF763FEFCF7B9FC0A4D012209217F
:103A10002868FCF77BFD4FF47A70FFF7ADFED4F811
:103A2000940218B10020C4F89402EFE70120FAE7ED
:103A300000004142DC000020704700000000000050
:103A40002DE9F04307462DED0C8B8FB00C46154643
:103A5000F7EE00BA06A807A9009101900EAB02AAE2
:103A60000AA90CA8FFF7DCFE28B101200FB0BDECBD
:103A70000C8BBDE8F083704E30887080B088F08089
:103A800030897081DFF8B481B8F80000A8F802002E
:103A9000B8F80400A8F80600B8F80800A8F80A006A
:103AA000DFF89C91B9F80000A9F80200B9F8040009
:103AB000A9F80600B9F80800A9F80A000EA90CA890
:103AC00000F05CF9BDF830003080BDF83200B08005
:103AD000BDF8340030810EA90AA800F0B9F8BDF88D
:103AE0002800A8F80000BDF82A00A8F80400BDF8D6
:103AF0002C00A8F808000EA908A800F0E1F8BDF80D
:103B00002000A9F80000BDF82200A9F80400BDF8C3
:103B10002400A9F80800BDF81C0010F4807F7AD0BA
:103B20009DED020AF8EEC00A9FED460A60EE809A0B
:103B3000DDED030AF8EEE00A20EE80DADDED040A9E
:103B4000F8EEE00A60EE808ADDED050AF8EEE00AA4
:103B500020EE808AF0EE00DA28EEADBA29EEAD9ABA
:103B60002BEE080A09EE0D0A10EE100A01F0CCF84F
:103B700041EC100BFFF7FCF89FED33AB51EC100B51
:103B800053EC1A2B00F0CAFD00F0F4FA386069EE2D
:103B9000299A68EE2D0AB0EE690A00EE880A30EE26
:103BA0006B0A10EE100A01F0AFF829EE280A2DEE8C
:103BB0002DDA41EC1C0B0DEE480A10EE100A01F054
:103BC000A3F841EC100BB0EE4C1AF0EE6C1AFFF7B4
:103BD000EBFB53EC1A2B51EC100B00F09FFD00F0A7
:103BE000C9FA20604BEE289A39EEEB0A10EE100A63
:103BF00001F08AF829EE080A41EC1B0B0DEE680A69
:103C000010EE100A01F080F841EC100BB0EE4B1AE8
:103C1000F0EE6B1A00E00CE0FFF7C6FB53EC1A2B3A
:103C200051EC100B00F07AFD00F0A4FA286000209F
:103C30001CE702201AE70000D8010020E401002060
:103C4000F0010020000080306666666666A64C4083
:103C500030B583B004460D461848817A11F0080F3C
:103C60000CD00168406801ABC97B00780622FCF7E4
:103C7000EBFD38B103B04FF0FF3030BD03B04FF073
:103C8000FF3030BD9DF805009DF8041040EA01208A
:103C900020809DF807009DF8061040EA0120608012
:103CA0009DF809009DF8081040EA0120A08015B198
:103CB0002846FFF7C1FE03B0002030BD8C01002074
:103CC00070B584B004460E462B4DA87A10F0010F53
:103CD0000DD0286801AB082290F828106868007899
:103CE000FCF7B2FD38B104B04FF0FF3070BD04B046
:103CF0004FF0FF3070BD9DF8040010F0010F02D0AE
:103D000010F0020F03D004B06FF0010070BD9DF8F9
:103D10000B0010F0800F03D004B06FF0020070BDF4
:103D20009DF805009DF8061040EA012020809DF8CE
:103D300007109DF8082041EA022262809DF80910D0
:103D40009DF80A3041EA0323A380A98D10FB01F0FE
:103D500000122080E88D12FB00F000126080288E97
:103D600013FB00F00012A08016B13046FFF764FE8E
:103D700004B0002070BD00008C01002030B583B07D
:103D800004460D461848817A11F0700F0CD0016876
:103D9000406801AB897B00780622FCF755FD38B1FD
:103DA00003B04FF0FF3030BD03B04FF0FF3030BDF7
:103DB0009DF805009DF8041040EA012020809DF840
:103DC00007009DF8061040EA012060809DF8090078
:103DD0009DF8081040EA0120A08015B12846FFF7A1
:103DE0002BFE03B0002030BD8C0100202DE9F843EC
:103DF0000546884616462C4F97F8240000280ED01A
:103E0000B87A80B138686B460222017B7868007806
:103E1000FCF71AFD58B14FF0FF30BDE8F8834FF0C2
:103E2000FF30BDE8F8834FF0FF30BDE8F8839DF820
:103E300001009DF8001040EA0124AC4204D20020A9
:103E40003070401EBDE8F88378684188B4EB510FAC
:103E500016D9396800786B46C97C0122FCF7F4FC5E
:103E600018B14FF0FF30BDE8F8839DF8000010F066
:103E7000100F05D000F01AF86FF00100BDE8F883CC
:103E80003868EAB24346417B78680078FCF7DCFC8E
:103E900018B14FF0FF30BDE8F883B4FBF5F0401ED9
:103EA00030700020BDE8F8838C01002038B55F4DEC
:103EB000A87A00280CD00024009428686B460122C0
:103EC000417C68680078FCF7EBFC20B1601E38BDCF
:103ED0004FF0FF3038BD28686B4601224179686891
:103EE0000078FCF7DDFC10B14FF0FF3038BD2868DA
:103EF0006B460122017968680078FCF7D1FC10B1AB
:103F00004FF0FF3038BD95F82400002844D00C2035
:103F1000009028686B460122017968680078FCF7F8
:103F2000BFFC10B14FF0FF3038BD3220FFF724FC4A
:103F3000C0200090A87A10F0010F01D0E02000907E
:103F400028686B460122017968680078FCF7A8FCB4
:103F500010B14FF0FF3038BD687C10B102200090E6
:103F600000E0009428686B460122417C6868007874
:103F7000FCF796FC10B14FF0FF3038BD0094286874
:103F80006B460122417968680078FCF789FC0028BB
:103F900049D04FF0FF3038BD0420009028686B46B0
:103FA0000122017968680078FCF77AFC10B14FF0C3
:103FB000FF3038BDA87C88B9A87A10F0010F0DD069
:103FC0006020009028686B460122017968680078BB
:103FD000FCF766FC28B14FF0FF3038BD4020009060
:103FE000F0E73220FFF7C8FB687C10B10120009099
:103FF00000E0009428686B460122417C68680078E4
:10400000FCF74EFC10B14FF0FF3038BD286805F1C9
:1040100010030122417968680078FCF741FC10B177
:104020004FF0FF3038BD002038BD00008C0100206B
:1040300000B52DED048B83B041EC190B00F0AEFC04
:1040400041EC180B18EE100A18EE901A8DED008B4B
:10405000002818BF0120084320F00040C0F17F6015
:1040600000F1E040C00F14D019EE101A19EE900ABA
:104070008DED009B002918BF0121084320F000406E
:10408000C0F17F6000F1E040C00F04BF0120FCF7E9
:1040900015F951EC180B03B0BDEC048B00BD00000A
:1040A000F0B589B005460024069407940294039461
:1040B00004940594019401210846FCF7C9FF0121ED
:1040C0001020FCF7EFFF234F072209213846FCF7A9
:1040D00033FB07220A213846FCF72EFB4FF4C06061
:1040E000069002218DF81C108DF81D108DF81E40D1
:1040F00001268DF81F6006A93846FCF7D2FA029512
:10410000ADF80C40ADF80E40ADF81040ADF81440DD
:104110000C20ADF81200104C02A92046FEF7ECFA74
:1041200001212046FEF79AFA012240F2255120464D
:10413000FEF7C4FA25208DF8040003208DF8050051
:104140008DF806008DF8076001A8FCF7A5FC09B002
:10415000F0BD0000000002400010014081F000416D
:10416000704780F00040704721F00041704720F018
:104170000040704721F00042A2F16052B2F5801F6A
:1041800001F0004328BFD2F17F6C0BD95FEA001C1D
:1041900043EAC20242EB507018BF704728BF20F0BC
:1041A00001007047B2F5801FBCBF184670474FEA48
:1041B000410C1CF5001F02D2084600F01BBE70B572
:1041C00000F056FB00000089FFF7F6BF4FF00040FB
:1041D000A0F580007047000010B591EA030F48BFBA
:1041E00083F0004300F1AE84841A71EB030C05D216
:1041F000121943EB0C03001B61EB0C01DFF824E107
:104200004FEA1154A4EB135C1EEA430F18BF9EEA59
:10421000445F73D023EA0E03DCF1200E21EA04513F
:1042200043F4801332D322FA0CFE10EB0E0023FA73
:104230000CFE41EB0E01CCF1200E03FA0EFE10EB4A
:104240000E0051F10001B1F5801FCCF1200E32D2E9
:1042500001EB045112FA0EF2BDE8104058BF70474E
:10426000401C38BF5FEA420218BF7047002814BFE5
:1042700020F0010041F100014FEA410313F5001F56
:1042800038BF7047A1F1C04100F040BB012A43EBA9
:104290000302ACF1200CDCF11F0E32BF4FF0000E18
:1042A00023FA0CF310EB030041EB0451B4EB115F64
:1042B000D0D0A1EB045101F5801149085FEA30002C
:1042C00001EB04510ED350F1000038BF12FA0EFE7C
:1042D00008D1BDE81040C9E7401C38BF5FEA420280
:1042E000CAD1C3E7BDE810404FEA410313F5001FF0
:1042F00038BF7047A1F1C04100F008BB9EEA445F9F
:1043000008D011EA5E0FBDE8104004BF01F0004183
:1043100000207047BDE8104070B500F0A9FA00BF5A
:1043200064FBBE3E0000E0FF491058BFC1F14041B0
:104330005B1058BFC3F140438B42EFF300807047DE
:104340002DE9C04130B4DFF8A0C23CEA111418BF17
:104350003CEA131400F0EC8081EA03051CEA111416
:1043600044EAD57418BF1CEA131500F0C780A4EB0B
:1043700005044FF0004545EAC12145EAC32341EA5F
:10438000505143EA525304F17F74994204F50034CA
:104390004FEAC0204FEAC22208BF904200F09C8042
:1043A0004FEA13650FF24016765D4FEA134506FBA0
:1043B00005F7C7F1807706FB07F74FEAD737A7FB6A
:1043C00003687642C8F58038A7FB06CE38BFA8F14F
:1043D000010807FB08E64FF0000EA6FB028CE6FB87
:1043E00003CEDCF1000CCEF1004E38BFAEF1010E71
:1043F000A6FB0C584FF000074FF00005E6FB0E87B8
:10440000A1FB08C6A0FB07CE16EB0E0645F1000582
:10441000E1FB076515F1E04E7EBFA4F580345FEA4D
:1044200046066D4116F1800745F100054FEA172752
:104430004FEA066647EA0567A6F1DE46B6F1805FF9
:104440004FEA15251FD9384624F0010C05EBC4713D
:10445000BCF1FE6F01EB0C1102D8F0BCBDE800818D
:1044600024425CBF01F5801E9EEAC47F02D4F0BCEA
:10447000BDE80081244238D4F0BCA1F1C041BDE8C0
:10448000004100F043BA4FEAD22242EA43524FEAD7
:10449000D323A7FB02864FEAD02040EA415007FB16
:1044A00003661EEA0E0F4FEAD12105FB026658BFD4
:1044B000A6EB0056B6EB00564FEA520E4EEAC37E0C
:1044C00018EB0E0E56EB530EBDD518EB02085E41ED
:1044D0007F1C55F10005B6E74FF480154FF000073B
:1044E0004FF000064FF00008ADE7F0BC4FF00000C1
:1044F00001F1C04101F00041BDE8008111EA0C1F4B
:104500000CEA131500D00CE013EA0C1F00F0258014
:104510004FF00000F0BC81EA030101F00041BDE86A
:104520000081F0BCBDE8004181EA030100F0EEB972
:10453000F0BCBDE8004170B500F09AF9097EFC3E80
:1045400000F007B881EA03014FF0000001F00041DC
:10455000704781EA030100F0D9B9F0BCBDE8004121
:104560004FF0000021497047FFFDFBF9F7F5F4F229
:10457000F0EEEDEBE9E8E6E4E3E1E0DEDDDBDAD8FE
:10458000D7D5D4D3D1D0CFCDCCCBCAC8C7C6C5C45C
:10459000C2C1C0BFBEBDBCBBBAB9B8B7B6B5B4B373
:1045A000B2B1B0AFAEADACABAAA9A8A8A7A6A5A45E
:1045B000A3A3A2A1A09F9F9E9D9C9C9B9A99999822
:1045C0009797969595949393929191908F8F8E8EC5
:1045D0008D8C8C8B8B8A8989888887878685858452
:1045E00084838382828181800000FF070000F87F3E
:1045F0004FEA41034FEA5353A3F58063D3F11E03FF
:10460000C8BFD3F1210C0CDD4FF0004242EAC122B9
:1046100042EA505232FA03FC8CEAE17CACEBE170E6
:104620007047102BC4BF0020704703F5787CBCF1A5
:10463000FF3F04D06FF0004282EA2100704770B55E
:1046400000F016F94992248000207047F2E710F03C
:10465000004248BF4042B0FA80F310FA03F10AD09A
:10466000C3F11D0303F580634FEA415002EB03528F
:1046700002EBD12170474FF000007047B0FA80F391
:1046800010FA03F10AD0C3F11D0303F580634FEA6A
:1046900041504FEA035202EBD12170474FF0000026
:1046A0007047000051EA030C17D41CF5801F58BF57
:1046B000BCF5801F00F10680994218BF704708BF03
:1046C0009042704707D711F5801F58BF13F5801F20
:1046D00019D499427047894270471CF5801F08D54C
:1046E000BCF5801FF7D58B4218BF704708BF8242C8
:1046F00070474FF4001C1CEB410F38BF1CEB430FFD
:1047000001D28B42704770B500F0B2F89224490094
:104710004FF000514FF08053FFF706BEDFF848C15D
:1047200070B51CEA111E1EBF1CEA13159EEA0C0F81
:1047300095EA0C0F00F06F8081EA030423EA4C1322
:104740004EEAD47E21EA4C1141F4801143F48013E7
:10475000AE44A1FB024CA0FB0365AEF17F7E36198F
:1047600055EB0C05A1FB034C4CF10003A0FB021C14
:1047700016EB0C06654153F10003094218BF46F0E1
:10478000010613F4007F0BD14FEA03314FEA0530E5
:10479000340341EA155140EA16506FF003020AE073
:1047A0004FEAC3214FEAC520F40241EA555140EADD
:1047B00056506FF0020202EB2E4201EB025585EAE1
:1047C000CE710AD05FEA440C18BF24F0004450F1C7
:1047D000000041F1000120EAD47040F2FE7C624505
:1047E00000D270BDA84214BF4FF080444FF0404447
:1047F000002E08BF0024BEF1806FA8BFA1F1C04108
:10480000BDE8704080F282804FF0000001F1C041AD
:1048100001F0004170479EEA0C0F0CEA131518BF17
:1048200095EA0C0F06D04FF0000081EA030E0EF05F
:10483000004170BD00F01CF88900013E00F007B88F
:1048400000F009B84FEA430C5FEA5C5C08D081EAEB
:10485000030100F05BB84FEA410C5FEA5C5CF6D103
:104860004FF00000014970470000FF070000F87F8B
:104870000EF1020E2EF0030E5EF8046B364205D4E4
:10488000012A43EB030515F5001F12D8012841EB5F
:10489000010C1CF5001F0CD80ED14FEAD17C15F588
:1048A000001F0CEB4C0C0CF1020C08BF4CEBD37C42
:1048B00004E04FF0080C01E04FEAD37C0CEB4C0510
:1048C00026FA05F606F00706B6F1040C06D20EEB42
:1048D000860CBDE870404CF0010C6047DFE80CF03E
:1048E000090B02024FF000414FF00000A1F500213A
:1048F00070BD19461046012851EB010418BFD4F5CC
:10490000001484BF002001F0004170BD0808A0F52C
:1049100000114FEA3101704753EA010C17D41CF51E
:10492000801F58BFBCF5801F00F106808B4218BF66
:10493000704708BF8242704707D713F5801F58BFE2
:1049400011F5801F19D48B4270479B4270471CF5AC
:10495000801F08D5BCF5801FF7D5994218BF704756
:1049600008BF904270474FF4001C1CEB430F38BF48
:104970001CEB410F01D2994270470FB40CBC03BC31
:10498000FFF7C1BE91EA030F10B581F000413FF57A
:104990002BAC83F0004300F0D5B800002DE9F041C6
:1049A00001F5801CBCF5001FC0F2A9804FEA115C24
:1049B00021EA0C510CF1FD0C41F480115FEA5C0C12
:1049C0000CF5C07C01D34000494130A4890241EA82
:1049D000905187028E0E0A0CA45D04FB04F602FBC4
:1049E00006F6C6F14046A4FB0662F60D46EA4226EC
:1049F00006FB06F4A4FB01235242C3F1404338BF37
:104A00005B1EA6FB02420024E6FB0324D20B42EA13
:104A10004446A6FB0623A1FB02E2A3FB07E4E3FB5B
:104A200061426442C2F1404E38BFAEF1010EA6FBB6
:104A300004234FF00002E6FB0E32A2FB03463400D3
:104A4000E2FB6264A1FB06E6A4FB07E8E4FB616805
:104A50007642C8F1405838BFA8F10108A2FB06E42D
:104A6000A3FB08E5E2FB6854A1FB05E6A7FB04E80D
:104A7000E1FB648618F1200556F10006A809A8F1AB
:104A80001B08B10908F03F08B8F10A0F40EA866038
:104A90001CD901EB0C51BDE8F08100BFFCF5EEE83C
:104AA000E2DDD8D3CFCBC7C3C0BDB9B6B4B1AEACCD
:104AB000A9A7A5A3A19F9D9B9A9896959392908F45
:104AC0008D8C8B898887868584838281A0FB006892
:104AD00000FB01F208EB4208B8EB872807D5341831
:104AE00058EB0104D5D5401C51F10001D1E7341A2F
:104AF00078EB0104CDD4401E71F10001C9E75FEAF3
:104B00004C0C5FEA9C5C0DD105D34FF0000001F026
:104B10000041BDE8F081BDE8F04170B5FFF7A8FEA7
:104B20006DDBFFBEBDE8F0414FF00000004970476B
:104B30000000F87F10B591EA030F48BF83F00043EF
:104B40003FF552AB841A71EB030C07D212198CF0AB
:104B5000004C43EB0C03001B61EB0C01DFF8A4E1FC
:104B60004FEA1154A4EB135C1EEA430F18BF9EEAF0
:104B7000445F00F0B08023EA6E03524221EA045100
:104B8000C3EB6E0338BF5B1EDCF1200E25D322FA87
:104B90000CFE10EB0E0043FA0CFE41EB0E01CCF1C3
:104BA000200E03FA0EFE10EB0E0051F10001CCF1C5
:104BB000200E29D412FA0EF201EB0451BDE8104088
:104BC00058BF7047401C1CBFB2F1004F704700280F
:104BD0000CBF491C20F00100704712EB020E43EBA2
:104BE000030218BF4FF0010E4EEA4202ACF1200C56
:104BF000DCF11E0E54D943FA0CFE10EB0E0051F1FD
:104C0000FF31CCF11E0ED5D50EF1010E12FA0EFEBB
:104C1000404141EB010101EB445C5FEA5C5C10D96F
:104C200010EBDE7001EB045138BFBEF1004FBDE860
:104C3000104018BF704700280CBF491C20F001002D
:104C4000704730D24FEAD42C11F5001124F40064DF
:104C50001BD0B1FA81F20B3AA41AA41ED2F12003A0
:104C6000914030FA03F31943904001EBCC71002CD2
:104C700001EB0451BDE81040A8BF704701F1C041ED
:104C80004FF0000001F000417047B0FA80F310FAD5
:104C900003F100D110BDE41A173C4805C90AE4E746
:104CA00001EB045110BD491001EB0451BDE8104067
:104CB0004FEA300002E04FF0000170474A0008BFA1
:104CC0000042F8D0B2F5001F28BF704701F0004144
:104CD0004FF0000070479EEA445F07D011EA5E0F74
:104CE000BDE8104004BF002100207047BDE810401F
:104CF00070B5FFF7BDFD00BF40DFF63E83F0004119
:104D0000104670470000E0FF43004FEAD30C4FEA23
:104D10003C0C43401FBF40070CF1605113F0FE4FA5
:104D200070471CF0006F03D100200CF00041704769
:104D30000CF0004343EA507010B540EACC0000F09C
:104D40000EF800BF000000924FEA0001FFF7DEBD41
:104D50004FF000414FF00000A1F5002170470EF127
:104D6000020E2EF0030E5EF8044B244204D44FEAE8
:104D70004102B2F17F4F11D84FEA4003B3F17F4FA8
:104D80000CD80ED14FEAD07CB2F17F4F0CEB4C0C1B
:104D90000CF1020C08BF4CEBD17C04E04FF0080C86
:104DA00001E04FEAD17C0CEB4C0324FA03F404F04D
:104DB0000704B4F1040C06D20EEB840CBDE81040DD
:104DC0004CF0010C6047DFE80CF0070802024FF0DE
:104DD0000040A0F5800010BD0846420018BFD2F187
:104DE000807288BF00F0004010BD4FF04070E1EECF
:104DF000100A7047FF2141EAD050C0057047C0C873
:104E0000846068341D0E0206034708050A960B06E7
:104E10000D0F0E620F7610F61143121315151818A8
:104E2000191620FB23E9242A2500261F2C812D3565
:104E3000173B75191A0C6A231B1C1D1E1F20727448
:104E4000433B4138393A696B6C376F77246D6E702C
:104E500025262728292A346364674900680000044E
:104E600080004101000000013313000083000000B6
:104E70000040000000030000C800C8000000A0417E
:104E80000000D2420000003F6666663ECDCC2C3F5B
:104E90000000003F0000003F0A000000000000008A
:104EA000555555555555C53F7D6FEB0312D6D4BFAB
:104EB0005544880E55C1C93F3B8F68B52882A4BFB1
:104EC00088B20175E0EF493F09F7FD0DE13D023F72
:104ED0004B2D8A1C273A03C0C88A599CE52A0040FA
:104EE00059018D1B6C06E6BF82922EB1C5B8B33F47
:104EF0004FBB610567ACDD3F182D4454FB21E93FF2
:104F00009BF681D20B73EF3F182D4454FB21F93FE0
:104F1000E2652F227F2B7A3C075C143326A6813C66
:104F2000BDCBF07A8807703C075C143326A6913C11
:104F3000C4EB98999999C9BF711623FEC671BCBF7D
:104F40006D9A74AFF2B0B3BF9AFDDE522DDEADBFE5
:104F50002F6C6A2C44B4A2BF0D5555555555D53FFD
:104F6000FF8300922449C23F6E204CC5CD45B73F18
:104F7000513DD0A0660DB13FEB0D76244B7BA93F90
:104F800011DA22E33AAD903F00000000000000007B
:104F900061626364656667680A000000BC4F0008D0
:104FA00000000020D8010000C401000824500008BF
:104FB000D8010020C00E000020020008418BCD0562
:104FC00004237E041AD80801450C1380B643080157
:104FD000280428F08E40C0097B14AE47E17A643F74
:104FE00013904F40120805C59842514EA83F4E629B
:104FF0006941E50A6F3C0D1AFF217D3D1841E91812
:1050000001342D01020304040524060708091332A4
:105010004E1B085C04012C1A6C302A016C390429DF
:045020000229B1218F
:040000050800018965
:00000001FF
